:100000000C946E000C940B020C948B000C948B00DF
:100010000C948B000C948B000C948B000C948B0034
:100020000C948B000C948B000C948B000C948B0024
:100030000C948B000C948B000C948B000C948B0014
:100040000C948B000C948B000C948B000C948B0004
:100050000C948B000C948B000C948B000C948B00F4
:100060000C948B000C948B000403090412036F00A2
:1000700062006400650076002E00610074001403C5
:100080004400610074006100530074006F0072004E
:1000900065001201100100000008C016DF05000114
:1000A0000102000109022200010100800A09040086
:1000B00000010300000009210101000122160007D0
:1000C0000581030800640600FF0901A1011500264F
:1000D000FF00750895800900B20201C011241FBEFF
:1000E000CFEFD8E0DEBFCDBF11E0A0E0B1E0E8E99E
:1000F000F8E002C005900D92A230B107D9F711E0E7
:10010000A2E0B1E001C01D92AB33B107E1F70E945C
:10011000A3030C944A040C940000E9E6F0E080810B
:1001200082608083E89A8BE4809311018AE5809352
:10013000100108951F93DC01162F8091100184FF98
:1001400007C08091110198E889278093110103C0AD
:100150008AE580931001912FE2E1F1E08D91819386
:1001600091501916DCF382E191E0612F0E940702A1
:100170001C5F109310011F9108951F93CF93DF937D
:1001800060912101635067FDBFC080911E01CCE0EA
:10019000D0E0C81BD109CB5DDE4F80911D018D32AF
:1001A00009F09FC0683009F0ADC083EC8093050171
:1001B0008AE580930001109202018881807641F0E7
:1001C000CE010E949003282F8F3F09F479C07FC091
:1001D0009A8110920E018981882321F410920F01D7
:1001E00022E067C0853019F49093220161C0863007
:1001F00009F04AC08B81813019F482E990E01BC07C
:10020000823041F484EA90E09093200180931F01B2
:1002100022E236C08330F9F48A81882341F488E6EB
:1002200090E09093200180931F0124E029C0813049
:1002300041F48CE690E09093200180931F0122E12D
:100240001FC08230E1F48EE790E09093200180930C
:100250001F0124E115C0813241F486EB90E09093B8
:10026000200180931F0129E00BC0823241F486EC0B
:1002700090E09093200180931F0126E101C020E0CF
:1002800080E48093020123C0883021F421E084E2DD
:1002900091E011C0893019F49093240109C08A308B
:1002A00011F421E006C08B3019F48BE48093110126
:1002B00020E08EE091E09093200180931F0107C021
:1002C000888187FD2E8180E88093020106C08F819E
:1002D000882319F48E81821708F0822F8093010100
:1002E00011C08091020187FF0DC0CE010E94E6037C
:1002F0008F3F21F48EE18093000104C0882311F028
:1003000010920101109221018091000184FF56C0DA
:10031000809101018F3F09F451C0182F893008F0F6
:1003200018E0811B809301018091050198E88927DD
:1003300080930501112379F18091020187FF09C0A3
:1003400086E091E0612F0E940704182F893080F524
:1003500022C020911F013091200186FF0AC0912FF9
:10036000F901A6E0B1E084918D9331969150D9F7CF
:1003700008C0912FD901E6E0F1E08D918193915071
:10038000E1F7C90101961150810F911D1F5F9093F4
:10039000200180931F0186E091E0612F0E940702F7
:1003A000612F6C5F6C3041F08FEF8093010104C0CE
:1003B0008FEF809301016EE16093000194E189B1B8
:1003C000847861F49150D9F71092220110921C01A7
:1003D0008FEF60E070E040E00E946003DF91CF911A
:1003E0001F910895A82FB92F80E090E041E050EAD6
:1003F000609530E009C02D9182279795879510F080
:1004000084279527305EC8F36F5FA8F30895EADF6D
:100410008D939D930895CF93CFB7CF93C3954F9B63
:10042000E9F74F9B09C04F9B07C04F9B05C04F9BEF
:1004300003C04F9B01C0A3C0DF93C0911E01DD2705
:10044000CB5DDE4F4F9B02C0DF91EBCF2F930F931D
:100450001F9309B12FEF07FB20F94F933F9319B179
:100460004FEF012707FB21F93BE031C04E7F012F01
:1004700019B1216028C0102F4D7F2260000009B102
:1004800029C04B7F2460012F000019B12BC019B186
:10049000477F28602AC04F7E09B120612CC04F7D64
:1004A00019B120622FC04F7B09B1206432C04227AE
:1004B00009B149934FEF0000102717FB20F919B13C
:1004C0001478C9F1297F91F2012707FB21F909B1BD
:1004D000237F89F2315058F1102717FB22F919B107
:1004E000277E79F2012707FB23F92F7C81F209B1DE
:1004F000102717FB24F92F7971F200C019B10127D9
:1005000007FB25F92F7359F200C009B1102717FB1B
:1005100026F9223040F200C019B1012707FB27F964
:10052000243028F64F77206819B10000F9CF11E088
:100530001CBB002719C03B503195C31BD04011E0B4
:100540001CBB0881033CF9F00B34E9F020911C013D
:100550001981110F1213EDCF4A81441F093641F161
:100560000D3211F0013E29F7009323013F914F9185
:100570001F910F912F91DF91CCB3C0FD4FCFCF9141
:10058000CFBFCF91189520912301222379F31091A9
:100590002101112369F534306AF130932101209350
:1005A0001D0110911E013BE0311B30931E0122C042
:1005B000009121010130E4F40AE54F7049F43091D3
:1005C000000134FD19C000930001C5E0D1E018C05E
:1005D0003091100134FD10C000931001C1E1D1E051
:1005E0000FC02795A8F45150A9F4220F0000F9CFAD
:1005F0004AE503C042ED01C0432FC4E1D0E032E040
:100600001AB114685F9A1AB90BB120E414E85F9329
:10061000012756E00BB9279520F4515021F4220F01
:10062000F9CF012756E000003B5A0BB9D0F22795CD
:1006300028F4515029F4220F0000F9CF012756E089
:1006400027950BB920F4515021F4220FF9CF01273F
:1006500056E0299133230BB921F60B771091220133
:10066000110FC651D0400BB911F010931C0111E0CD
:100670001CBB00681AB11B77402F4B775F9100C0FD
:1006800000C00BB91AB94BB971CF282F982F92958A
:100690009F709A3008F0995D8091C00085FFFCCF73
:1006A000905D9093C600922F9F709A3008F0995DEC
:1006B0008091C00085FFFCCF905D9093C6000895A7
:1006C0000F931F93CF93DF93EB01142F0E944503E9
:1006D0008091C00085FFFCCF8AE38093C60000E2D2
:1006E0000AC08091C00085FFFCCF0093C6008991AD
:1006F0000E94450311501123A1F78091C00085FF8E
:10070000FCCF8DE08093C6008091C00085FFFCCFB8
:100710008AE08093C600DF91CF911F910F910895D9
:10072000FC0180818076803261F48181813011F01A
:10073000893039F480E880930401109203018FEF2F
:10074000089580E0089580E8809361001092610030
:1007500086ED809366002EE088E190E00FB6F89475
:10076000A895809360000FBE209360008091C10027
:1007700088608093C10086E290E09093C5008093EA
:10078000C4008DE660E070E040E00E9460030E94DB
:100790008D00579A20E048EB5BE004C0A895CA01A1
:1007A0000197F1F72150D1F7579878948CE660E0E3
:1007B00070E040E00E94600380E060E070E040E0B4
:1007C0000E946003A8950E94BD00F6CF1F93209160
:1007D00004012223C1F0162F261708F4122F60916E
:1007E000030170E0412F50E00E9432048091030128
:1007F000810F8093030180910401811B8093040188
:1008000090E0882309F491E0892F1F9108951F93A8
:1008100020910401162F261708F4122F609103016E
:1008200070E0412F50E00E94220480910301810F6B
:100830008093030180910401811B80930401812F27
:100840001F910895DC01CB01FC01F999FECF06C090
:10085000F2BDE1BDF89A319600B40D92415050407E
:10086000B8F70895DC01CB0103C02D910E943D042F
:1008700041505040D0F70895262FF999FECF1FBA66
:1008800092BD81BD20BD0FB6F894FA9AF99A0FBEB9
:0808900001960895F894FFCFD2
:020898005AFF05
:00000001FF
