:100000000C946E000C94D8010C948B000C948B0013
:100010000C948B000C948B000C948B000C948B0034
:100020000C948B000C948B000C948B000C948B0024
:100030000C948B000C948B000C948B000C948B0014
:100040000C948B000C948B000C948B000C948B0004
:100050000C948B000C948B000C948B000C948B00F4
:100060000C948B000C948B000403090412036F00A2
:1000700062006400650076002E00610074001403C5
:100080004C0045004400430074006C0048004900E7
:1000900044001201100100000008C016DF05000135
:1000A000010200010902220001010080140904007C
:1000B00000010300000009210101000122160007D0
:1000C0000581030800640600FF0901A1011500264F
:1000D000FF00750895010900B20201C011241FBE7E
:1000E000CFEFD8E0DEBFCDBF11E0A0E0B1E0E6EB9E
:1000F000F6E002C005900D92A230B107D9F711E0E9
:10010000A2E0B1E001C01D92AA33B107E1F70E945D
:1001100032030C9459030C940000E9E6F0E080816E
:1001200082608083E89A8BE4809310018AE5809353
:100130000F0108951F93CF93DF9390912001935067
:1001400097FDA2C020911D0180911C018D3209F004
:1001500099C0983009F096C0CCE0D0E0C21BD1091C
:10016000CC5DDE4F83EC809304018AE5809300012F
:10017000109202018881807629F0CE010E9412033C
:10018000282F77C09A8110920D018981882321F44C
:1001900010920E0122E067C0853019F4909321017E
:1001A00061C0863009F04AC08B81813019F482E940
:1001B00090E01BC0823041F484EA90E090931F01EC
:1001C00080931E0122E236C08330F9F48A818823AD
:1001D00041F488E690E090931F0180931E0124E093
:1001E00029C0813041F48CE690E090931F01809308
:1001F0001E0122E11FC08230E1F48EE790E090936F
:100200001F0180931E0124E115C0813241F486EB69
:1002100090E090931F0180931E0129E00BC0823271
:1002200041F486EC90E090931F0180931E0126E13B
:1002300001C020E080E4809302011BC0883021F4DB
:1002400021E083E291E011C0893019F490932301F9
:1002500009C08A3011F421E006C08B3019F48BE418
:100260008093100120E08DE091E090931F01809336
:100270001E018F81882321F48E81821708F4282F94
:1002800020930101109220018091000184FF46C05B
:10029000809101018F3F09F441C0182F893008F087
:1002A00018E0811B809301018091040198E889275F
:1002B00080930401112321F120911E0130911F012F
:1002C0008091020186FF0AC0912FF901A5E0B1E0FB
:1002D00084918D9331969150D9F708C0912FD9010F
:1002E000E5E0F1E08D9181939150E1F7C90101962C
:1002F0001150810F911D1F5F90931F0180931E016C
:1003000085E091E0612F0E94D401612F6C5F6C3019
:1003100019F08FEF809301016093000194E189B19E
:10032000847131F49150D9F71092210110921B0180
:10033000DF91CF911F9108951F93DC01162F8091BB
:100340000F0184FF07C08091100198E889278093EE
:10035000100103C08AE580930F01912FE1E1F1E0E4
:100360008D91819391501916DCF381E191E0612F19
:100370000E94D4011C5F10930F011F910895A82FB4
:10038000B92F80E090E041E050EA609530E009C08C
:100390002D9182279795879510F084279527305EB9
:1003A000C8F36F5FA8F30895EADF8D939D930895D6
:1003B000CF93CFB7CF93C3954C9BE9F74C9B09C024
:1003C0004C9B07C04C9B05C04C9B03C04C9B01C081
:1003D000A3C0DF93C0911D01DD27CC5DDE4F4C9B98
:1003E00002C0DF91EBCF2F930F931F9309B12FEF33
:1003F00004FB20F94F933F9319B14FEF012704FB02
:1004000021F93BE031C04E7F012F19B1216028C096
:10041000102F4D7F2260000009B129C04B7F24605E
:10042000012F000019B12BC019B1477F28602AC0E5
:100430004F7E09B120612CC04F7D19B120622FC0C1
:100440004F7B09B1206432C0422709B149934FEF75
:100450000000102714FB20F919B11471C9F1297F8C
:1004600091F2012704FB21F909B1237F89F2315070
:1004700058F1102714FB22F919B1277E79F20127D0
:1004800004FB23F92F7C81F209B1102714FB24F916
:100490002F7971F200C019B1012704FB25F92F73E0
:1004A00059F200C009B1102714FB26F9223040F29E
:1004B00000C019B1012704FB27F9243028F64F7733
:1004C000206819B10000F9CF11E01CBB002719C04A
:1004D0003B503195C31BD04011E01CBB0881033C4D
:1004E000F9F00B34E9F020911B011981110F12135F
:1004F000EDCF4A81441F093641F10D3211F0013E22
:1005000029F7009322013F914F911F910F912F9155
:10051000DF91CCB3C0FD4FCFCF91CFBFCF91189516
:1005200020912201222379F310912001112369F5F2
:1005300034306AF13093200120931C0110911D0189
:100540003BE0311B30931D0122C00091200101309E
:10055000E4F40AE54F7049F43091000134FD19C00C
:1005600000930001C4E0D1E018C030910F0134FDC8
:1005700010C000930F01C0E1D1E00FC02795A8F48F
:100580005150A9F4220F0000F9CF4AE503C042ED13
:1005900001C0432FC4E1D0E032E01AB114615C9A8B
:1005A0001AB90BB120E414E15F93012756E00BB9AF
:1005B000279520F4515021F4220FF9CF012756E05E
:1005C00000003B5A0BB9D0F2279528F4515029F47A
:1005D000220F0000F9CF012756E027950BB920F430
:1005E000515021F4220FF9CF012756E029913323EE
:1005F0000BB921F60B7E10912101110FC651D0408D
:100600000BB911F010931B0111E01CBB00611AB172
:100610001B7E402F4B7E5F9100C000C00BB91AB902
:100620004BB971CFFC01808180768034C9F481811F
:10063000813041F4828180FF02C0289A01C028984D
:1006400080E00895823061F485B181708093030168
:1006500083E091E090931F0180931E0181E0089553
:1006600080E0089580E880936100109261008DEF32
:10067000809366002EE088E190E00FB6F894A8958C
:10068000809360000FBE209360000E948D00549AFA
:1006900020E048EB5BE004C0A895CA010197F1F7A0
:1006A0002150D1F75498209A7894A8950E949A00E6
:0606B000FCCFF894FFCF1F
:0206B6005AFFE9
:00000001FF
