:107000000C945D380C9495380C947A380C947A383A
:107010000C947A380C947A380C947A380C947A3828
:107020000C947A380C947A380C947A380C947A3818
:107030000C947A380C947A380C947A380C947A3808
:107040000C947A380C947A380C947A380C947A38F8
:107050000C947A380C947A380C947A380C947A38E8
:107060000C947A380C947A38040309041C037700D2
:10707000770077002E0066006900730063006800E7
:107080006C002E00640065000E03550053004200A2
:1070900061007300700012011001FF000008C016AB
:1070A000DC05020101020001090212000101008059
:1070B000FA09040000000000000011241FBECFEFF9
:1070C000D8E0DEBFCDBF11E0A0E0B1E0EEE5F8E72B
:1070D00002C005900D92A630B107D9F711E0A6E0E5
:1070E000B1E001C01D92AC33B107E1F70E94C23993
:1070F0000C942D3C0C940038A82FB92F80E090E020
:1071000041E050EA609530E009C02D9182279795C3
:10711000879510F084279527305EC8F36F5FA8F33A
:107120000895EADF8D939D930895CF93CFB7CF93C2
:10713000C3954F9BE9F74F9B09C04F9B07C04F9BDF
:1071400005C04F9B03C04F9B01C0A1C0DF93C091FE
:107150001F01DD27CA5DDE4F4F9B02C0DF91EBCFE1
:107160002F930F931F9309B12FEF07FB20F94F9334
:107170003F9319B14FEF012707FB21F93BE031C0E5
:107180004E7F012F19B1216028C0102F4D7F226042
:10719000000009B129C04B7F2460012F000019B104
:1071A0002BC019B1477F28602AC04F7E09B12061EA
:1071B0002CC04F7D19B120622FC04F7B09B12064D4
:1071C00032C0422709B149934FEF0000102717FB47
:1071D00020F919B11478C9F1297F91F2012707FB31
:1071E00021F909B1237F89F2315058F1102717FB9B
:1071F00022F919B1277E79F2012707FB23F92F7CA9
:1072000081F209B1102717FB24F92F7971F200C020
:1072100019B1012707FB25F92F7359F200C009B1F5
:10722000102717FB26F9223040F200C019B10127C0
:1072300007FB27F9243028F64F77206819B10000A2
:10724000F9CF11E01CBB002717C03B503195C31B81
:10725000D04011E01CBB0881033CE9F00B34D9F0AD
:1072600020911D011981110F1213EDCF093641F143
:107270000D3211F0013E39F7009324013F914F91F7
:107280001F910F912F91DF91CCB3C0FD51CFCF91C2
:10729000CFBFCF91189520912401222379F310912B
:1072A0002201112311F5343012F130932201209381
:1072B0001E0110911F013BE0311B30931F0117C0CD
:1072C0000091220101308CF40AE53091000134FD77
:1072D00010C000930001C2E1D1E00FC02795A8F4CF
:1072E0005150A9F4220F0000F9CF4AE503C042ED46
:1072F00001C0432FC4E1D0E032E01AB114685F9AB4
:107300001AB90BB120E414E85F93012756E00BB9DA
:10731000279520F4515021F4220FF9CF012756E090
:1073200000003B5A0BB9D0F2279528F4515029F4AC
:10733000220F0000F9CF012756E027950BB920F462
:10734000515021F4220FF9CF012756E02991332320
:107350000BB921F60B7710912301110FC651D040C4
:107360000BB911F010931D0111E01CBB00681AB19C
:107370001B77402F4B775F9100C000C00BB91AB943
:107380004BB97CCF2F923F924F925F926F927F9238
:107390008F929F92AF92BF92CF92DF92EF92FF9225
:1073A0000F931F93CF93DF9314BE88E10FB6F89429
:1073B00080936000109260000FBE5C9A14BE90E84B
:1073C000909361001092610085ED80936600209A91
:1073D000289A269A2E9A81E085BF82E085BF4C9933
:1073E0000FC280916900836080936900E89A579882
:1073F0007894E8E84E2EE0E75E2E7CE6272E70E7D4
:10740000372E68E6C62E60E7D62E58EAA52E50E73E
:10741000B52E46E9842E40E7942E36E0632E31E007
:10742000732E90912201935097FD5AC180911F01B4
:107430002CE0E22EF12CE81AF10826E231E0E20E0F
:10744000F31E80911E018D3209F0D3C0983009F0EF
:1074500045C133EC309312018AE58093000110920C
:107460000A01D7013C91832F807611962C911197B8
:10747000882309F44CC070922101609220012330CE
:1074800009F513969C91139714968C911497129664
:107490002C91203339F48370E82FF0E0EE5FFE4F3B
:1074A00080810CC0203A19F40E94173C07C0203C90
:1074B00021F4F70165810E941F3C80E0809309015F
:1074C00094E084C0253011F491E080C0822F845074
:1074D000863008F07AC0D70112968D919C9113974F
:1074E00090930C0180930B01293009F46EC016961D
:1074F0009C91169790930D0115968C9182708093B4
:107500000E0120930F0137FD67C02FEF66C0F70112
:10751000828110921B01222331F410921C012BE175
:1075200031E092E04DC0253019F48093230145C02D
:10753000263099F5D70113968C91813029F49092D9
:1075400021018092200106C0823031F4B0922101E5
:10755000A092200192E11DC08330D1F4F701828115
:10756000882331F4D0922101C092200194E011C00F
:10757000813031F430922101209220019CE109C038
:10758000823031F450922101409220019EE001C0EE
:1075900090E0F0E4F0930A0119C0283019F425E2D4
:1075A00031E009C0293019F48093250106C02A3042
:1075B00021F42BE131E091E003C02BE131E090E0D8
:1075C000309321012093200101C090E0D70117964C
:1075D0008C91882331F009C0292F80E880930A011B
:1075E00005C0F7012681291708F0292F20930101F2
:1075F00075C080910A0187FF71C080910D01192F1C
:10760000891708F4182F811B80930D0100E088234F
:1076100009F401E080910F01873010F0E70115C0F7
:1076200050910E01E0910B01F0910C0140E04BC034
:1076300080910B0190910C01019690930C01809325
:107640000B01019769910E941F3C9E012E19211781
:1076500078F340C0CF018F779070892B49F4F8946C
:1076600033E030935700E895789407B600FCFDCFDF
:107670004E5FF894D7018D919D917D01B1E00C0191
:10768000B0935700E895112478949F012E5F3F4FE7
:10769000C9018F779070892B31F0002399F0411741
:1076A00088F0552379F0F89485E080935700E895A9
:1076B000789407B600FCFDCFF89491E190935700C1
:1076C000E8957894F901411708F4C4CFF0930C01C0
:1076D000E0930B01002311F010920101109222019E
:1076E0008091000184FF80C0809101018F3F09F4E7
:1076F0007BC0182F893008F018E0811B80930101AE
:107700008091120198E8892780931201112309F4CE
:1077100058C080910A0187FF2BC080910D0181170D
:1077200008F4182F811B80930D0100910F01C3E114
:10773000D1E0E12EFF24EC0EFD1E16C0E0910B01FE
:10774000F0910C01073020F0CF010E94173C01C0DE
:1077500084918883219680910B0190910C01019670
:1077600090930C0180930B01CE15DF0539F727C0EC
:10777000209120013091210186FF0DC0A3E1B1E0ED
:1077800080E090E0F901E80FF91FE491ED93019694
:107790001817C1F708C0D901912FE3E1F1E08D91ED
:1077A00081939150E1F71150812F90E01F5F019676
:1077B000820F931F909321018093200102C0193002
:1077C00068F483E191E0612F0E949138612F6C5F32
:1077D0006C3041F08FEF8093010104C08FEF8093F4
:1077E00001016EE16093000194E189B1847809F0B0
:1077F00018CE9150D1F71092230110921D0111CE95
:107800001BB815B814B89093610083E080936100B1
:107810008AE880936600F8941DBA1092690081E0AE
:1078200085BF15BEE0911001F09111010995F999FC
:10783000FECF92BD81BDF89A992780B50895262F75
:10784000F999FECF1FBA92BD81BD20BD0FB6F89445
:0E785000FA9AF99A0FBE01960895F894FFCFA8
:06785E005AFF1E950F0009
:040000030000700089
:00000001FF
