:100000000C945C000C947E010C9479000C947900A3
:100010000C9479000C9479000C9479000C9479007C
:100020000C9479000C9479000C9479000C9479006C
:100030000C9479000C9479000C9479000C9479005C
:100040000C9479000C9479000C9479000C9479004C
:100050000C9479000C9479000C9479000C9479003C
:100060000C9479000C9479000403090412036F00C6
:1000700062006400650076002E00610074001603C3
:100080004C004500440043006F006E007400720095
:100090006F006C0012011001FF000008C016DC05A3
:1000A000000101020001090212000101008014098F
:1000B000040000000000000011241FBECFEFD4E0B8
:1000C000DEBFCDBF11E0A0E0B1E0E8ECF5E002C09A
:1000D00005900D92A230B107D9F711E0A2E0B1E08E
:1000E00001C01D92A133B107E1F70E94C3020C9435
:1000F000E2020C940000E9E6F0E0808182608083F7
:10010000E89A08951F93CF93DF939091170193502E
:1001100097FD83C020911401809113018D3209F065
:100120007AC0983009F077C0CCE0D0E0C21BD1098A
:10013000C55EDE4F83EC809307018AE58093000162
:10014000109202018881807629F0CE010E949202ED
:10015000282F58C09A81109210018981882321F498
:100160001092110122E048C0853019F490931801D3
:1001700042C0863089F58B81813019F484E990E0A2
:1001800016C0823019F486EA90E011C08330F9F489
:100190008A81882341F488E690E090931601809349
:1001A000150124E015C0813041F48CE690E0909375
:1001B00016018093150122E10BC0823041F48EE7D5
:1001C00090E0909316018093150126E101C020E094
:1001D00080E48093020116C0883021F421E08AE196
:1001E00091E00CC0893019F490931A0104C08A3050
:1001F00011F421E001C020E080E191E0909316012C
:10020000809315018F81882321F48E81821708F451
:10021000282F20930101109217018091000184FF83
:1002200046C0809101018F3F09F441C0182F8930E9
:1002300008F018E0811B809301018091070198E884
:10024000892780930701112321F120911501309115
:1002500016018091020186FF0AC0912FF901A8E0E2
:10026000B1E084918D9331969150D9F708C0912FC8
:10027000D901E8E0F1E08D9181939150E1F7C90156
:1002800001961150810F911D1F5F9093160180936D
:10029000150188E091E0612F0E947A01612F6C5F67
:1002A0006C3019F08FEF809301016093000194E1AD
:1002B00089B1847131F49150D9F7109218011092DC
:1002C0001201DF91CF911F910895A82FB92F80E0DF
:1002D00090E041E050EA609530E009C02D9182271E
:1002E0009795879510F084279527305EC8F36F5F48
:1002F000A8F30895EADF8D939D930895CF93CFB728
:10030000CF93DF93C3954C9BE9F74C9B0BC04C9B61
:1003100009C04C9B07C04C9B05C04C9B03C04C9B29
:1003200001C089C06F93C0911401DD27C55EDE4F07
:100330002F9365E54C9B03C02F916F91E6CF0F93F0
:100340001F934F9320E040E15F9309B1047104FBD8
:1003500027F93F9350E03BE039C0147140642F7798
:10036000012F5F5F1EC0406819B114712F77525082
:100370001FC0406409B12F770471D1F15F5F00C0E5
:1003800023C0406219B12F77147191F15F5F00C0F3
:1003900025C004711027515012F45D5F0000115008
:1003A00027952C3F19B1C8F61471012701502795E4
:1003B0002C3FC8F64227499309B1047110274F73A7
:1003C000115027952C3FA8F64695469519B1147102
:1003D00079F00127015027952C3F98F66B5A60F36E
:1003E000315009B1B0F600C011E01CBB002717C0A6
:1003F0003B503195C31BD04011E01CBB0881033C2E
:10040000F9F00B34E9F0209112011981110F121348
:10041000EDCF093651F10D3211F0013E39F700935D
:1004200019013F915F914F911F910F912F916F9102
:10043000CCB3C0FD67CFDF91CF91CFBFCF911895DF
:1004400020911901222369F310911701112339F525
:1004500034303AF1309317012093130110911401B5
:100460003BE0311B309314011CC000911701013097
:10047000B4F40AE53091000134FD14C0009300018A
:10048000C7E0D1E013C0052710E000C000000BB9A1
:100490001AC0052710E0221F1DC010E021C04AE548
:1004A00002C032ED432FC4E1D0E032E01AB1146152
:1004B0005C9A0BB11AB954E120E865E320FF0527E7
:1004C0000BB9279517951C3FF0F66695B8F7B1F76D
:1004D00020FF05270BB9279517951C3FD0F62795C8
:1004E000179517FF052700001C3F0BB9B0F629919F
:1004F0003A9519F70B7E10911801110FC651D04093
:100500000BB911F01093120111E01CBB00611AB17C
:100510001B7E402F4B7E54E05A95F1F70BB91AB968
:100520004BB97FCFFC0181818823A1F48281809324
:100530000301838180930401848180930501858177
:100540008093060183E091E090931601809315015A
:1005500084E00895813039F4828180FF02C0289AB6
:1005600004C0289802C0823011F080E0089585B15F
:1005700081708093030183E091E090931601809352
:10058000150181E008952EE088E190E00FB6F8941F
:10059000A895809360000FBE209360000E947B00AE
:1005A000549A20E040EA5FE004C0A895CA01019790
:1005B000F1F72150D1F75498209A7894A8950E9489
:0805C0008200FCCFF894FFCF8C
:0205C8005AFFD8
:00000001FF
