:100000000C945E000C9473000C9473000C947300B9
:100010000C9473000C9473000C9473000C94730094
:100020000C9473000C9473000C9473000C94730084
:100030000C9473000C9473000C9473000C94730074
:100040000C9473000C9473000C9473000C94730064
:100050000C9473000C9473000C9473000C94730054
:100060000C9473000C9473000708131414130807FE
:1000700000100808080810004C696E652032206CDA
:100080006F6E676572207468616E2031342063681A
:100090006172616374657273004C696E6520312012
:1000A0006C6F6E676572207468616E2031342063F6
:1000B0006861726163746572730A000011241FBE67
:1000C000CFEFD8E0DEBFCDBF11E0A0E0B1E0E8E3C4
:1000D000F4E002C005900D92AA32B107D9F70E9450
:1000E00082000C941A020C94000022EE34E099B1C4
:1000F000F9013197F1F789B1892387FDF8CF4F9B3B
:10010000FECF0895EF92FF920F931F93DF93CF934B
:10011000CDB7DEB727970FB6F894DEBF0FBECDBFC1
:1001200057985F9A8CE00E9498017E010894E11C28
:10013000F11C0E94610180E091E00E947E0181E15A
:1001400091E00E947E0187E061E00E9455018AE310
:100150000E9469010E9475008EE00E94410188E1C1
:1001600091E00E947E010E9475000E94610189E970
:1001700090E00E948A0188E790E00E948A0188E16D
:100180000E9441010E9475008CE00E9441010E9482
:10019000610186E890E0B7014AE050E00E94D50195
:1001A000C7010E947E010E9475000E9461018EE1DC
:1001B00091E00E947E0180E40E94410108E610E087
:1001C000F80184910E944B010F5F1F4FF0E0083748
:1001D0001F07B1F780E061E00E94550180E00E94B6
:1001E000690181E00E9469010E947500A2CF382F49
:1001F000662311F05C9A01C05C985D988AB18F60AB
:100200008AB99BB1907F832F82958F70892B8BB990
:100210005E9A81E0282F2A95F1F75E983F70392B7E
:100220003BB95E9A8A95F1F75E989F609BB90895F5
:10023000882311F05C9A01C05C985D9A8AB1807F36
:100240008AB95E9A81E0982F9A95F1F799B15E98F4
:10025000282F2A95F1F75E9A8A95F1F789B18F7068
:100260009295907F5E98892B089580E00E941801F6
:1002700087FDFBCF81E08A95F1F780E00E941801AD
:1002800008951F93182F0E943501812F60E00E946E
:10029000F7001F9108951F93182F0E943501812F99
:1002A00061E00E94F7001F910895662311F48058C1
:1002B00001C080540E94410108950E94350190E0E0
:1002C000089581E00E944101089582E00E94410169
:1002D00008951F93182F0E9435011A3049F4803475
:1002E00010F080E001C080E480580E94410104C009
:1002F000812F61E00E94F7001F910895CF93DF9353
:10030000EC0102C00E94690189918823D9F7DF912D
:10031000CF910895CF93DF93EC0102C00E94690151
:10032000FE01219684918823C9F7DF91CF9108952A
:100330001F93182F8AB18F678AB980EA9FE00197CF
:10034000F1F7599A589A5E9A91E0892F8A95F1F7B8
:100350005E98E2EEF4E03197F1F75E9A892F8A9584
:10036000F1F75E9885E1282F2A95F1F75E9A292FFB
:100370002A95F1F75E98282F2A95F1F758985E9AFA
:100380009A95F1F75E988A95F1F788E20E9441010B
:1003900088E00E9441010E94610186E00E944101C3
:1003A000812F0E9441011F910895FB019F01E89454
:1003B0004230C4F04532B4F44A3029F497FB1EF4BD
:1003C000909581959F4F642F77270E940602805D4C
:1003D0008A330CF0895D8193CB010097A1F716F465
:1003E0005DE251931082C9010C94F601DC01FC011D
:1003F000672F71917723E1F7329704C07C916D9359
:1004000070836291AE17BF07C8F30895AA1BBB1B88
:1004100051E107C0AA1FBB1FA617B70710F0A61B04
:10042000B70B881F991F5A95A9F780959095BC0125
:08043000CD010895F894FFCFFF
:100438004C43442054657374204C696E6520310A1E
:10044800004C696E652032004375724F6E00436F31
:0A045800707972696768743A200039
:00000001FF
